S01C000074696E795F6176725F6170706C69636174696F6E2E73726563A9
S1130000BEC4C5C4C4C4C3C4C2C4C1C4C0C4BFC4C0
S1130010BEC4BDC4BCC4BBC4BAC4B9C4B8C4000063
S113002000000000000000000000000000000000CC
S113003000000000000000000000000000000000BC
S113004000000000000000000000000000000000AC
S1130050000000000000000000000000000000009C
S1130060000000000000000000000000000000008C
S1130070000000000000000000000000000000007C
S1130080000000000000000000000000000000006C
S1130090000000000000000000000000000000005C
S11300A0000001000000000000000000000000004B
S11300B0000000000000000000000000000000003C
S11300C0000000000000000000000000000000002C
S11300D00000000101010000000000000000000019
S11300E0000000000000000000000000000000000C
S11300F000000000000000000000000000000000FC
S113010000000000000101010000000000000000E8
S113011000000000000000000000000000000000DB
S113012000000000000000000001000000000000CA
S113013000000000000000010101010000000000B7
S113014000000000000000000000000000000000AB
S11301500000000000000000000001010100010196
S11301600101010101000000000101010100000082
S1130170000000000000000000000000000000007B
S11301800000000101010101000000000101010162
S1130190010101010101010100000001010101004F
S11301A0000000000000000000000000000000004B
S11301B00000000001010101010100000000010133
S11301C0010101010101010101010000000101011E
S11301D0010000000000000000000000000000001A
S11301E00000000000000101010101010100000004
S11301F000010101010100000000000000000001F5
S113020001010100000000000000000000000000E7
S113021000000000000000000101010101010100D3
S113022000000000000000000000000000000000CA
S113023001010101010000000000000000000000B5
S113024000000000000000000000010101010101A4
S11302500101000000000000000000000000000098
S11302600000010101010100000000000000000085
S11302700000000000000000000000000001010177
S11302800101010100000000000000000000000066
S11302900000000001010101010000000000000055
S11302A0000000000000000000000000000000004A
S11302B00101010101010000000000000000000034
S11302C00000000000000101010101000000000025
S11302D0000000000000000000000000000000001A
S11302E00000010101010101010000000000000003
S11302F000000000000000000101010101000000F5
S113030000000000000000000000000000000000E9
S113031000000000000101010101010000000000D3
S113032000000000000000000001010101010100C3
S113033000000000000000000000000000000000B9
S113034000000000000000010101010101010000A2
S11303500000000000000000000000000101010195
S11303600100000000000000000000000000000088
S11303700000000000000000000001010101010173
S11303800100000000000000000000000000010166
S11303900101000000000000000000000000000057
S11303A00000000000000000000000000101010145
S11303B00101010000000000000000000000000036
S11303C00101010000000000000000000000000026
S11303D00000000000000000000000000000000118
S11303E00101010101010000000000000000000003
S11303F000000000000000000000000000000000F9
S113040000000000000000000000000000000000E8
S113041000010101010101010000000000000000D1
S113042000000000000000000000000000000000C8
S113043000000000000000000000000000000000B8
S113044000000001010101010101010000000000A0
S11304500000000000000000000000000000000098
S11304600000000000000000000000000000000088
S11304700000000000010101010101010100000070
S11304800000000000000000000000000000000068
S11304900000000000000000000000000000000058
S11304A00000000000000001010101010101010040
S11304B00000000000000000000000000000000038
S11304C00000000000000000000000000000000028
S11304D00000000000000000000101010101010111
S11304E00000000000000000000000000000000008
S11304F000000000000000000000000000000000F8
S113050000000000000000000000000001010101E3
S113051001010100000000000000000000000000D4
S113052000000000000000000000000000000000C7
S113053000000000000000000000000000000101B5
S113054001010101010100000000000000000000A1
S11305500000000000000000000000000000000097
S11305600000000000000000000000000000000087
S11305700001010101010101000000000000000070
S11305800000000000000000000000000000000067
S11305900000000000000000000000000000000057
S11305A0000000010101010101010101000000003E
S11305B00000000000000000000000000000000037
S11305C00000000000000000000000000000000027
S11305D0000000000000010101010101010101010D
S11305E00000000000000000000000000000000007
S11305F000000000000000000000000000000000F7
S113060000000000010101010101010101010101DA
S113061001010100000000000000000000000000D3
S113062000000000000000000000000000000000C6
S113063000000000000101010101010101010101AB
S1130640010101010101010000000000000000009F
S11306500000000000000000000000000000000096
S1130660000000000000010101010101010101017C
S1130670010101010101010101010100000000006B
S11306800000000000000000000000000000000066
S1130690000000000000000101010101010101014D
S11306A00101010101010101010101010101010136
S11306B00000000000000000000000000000000036
S11306C0000000000000000000010101010101011F
S11306D00101010101010101010101010101010106
S11306E00101010100000000000000000000000002
S11306F000000000000000000000000101010101F1
S113070001010100010101010101010101010101D6
S113071001010101010101010000000000000000CD
S113072000000000000000000000000000010101C2
S113073001010101000001010101000101010101A8
S11307400101010101010101010101010000000099
S11307500000000000000000000000000000000194
S1130760010101010100000001010101000000017B
S11307700101010101010101010101010101010165
S11307800000000000000000000000000000000065
S1130790000101010101000000000101010100004C
S11307A00000010101010101010101010101010137
S11307B00101010101000000000000000000000030
S11307C0000000010101010000000000010101011D
S11307D0000000000000000000000101010101010F
S11307E001010101010101010101000000000000FB
S11307F000000000000101010101000000000101EE
S113080001010100000000000000000000000001E0
S113081001010101010101010101010101000000C7
S113082000000000000000010101010101000001BD
S113083001010101010000000000000000000000AF
S11308400000010101010101010101010101010196
S1130850010000000000000000000101010101018D
S1130860010101010101010000000000000000007D
S1130870000000000000000001010101010101016C
S1130880010101010000000000000000010101015C
S1130890010101010101010101000000000000004B
S11308A00000000000000000000000000101010140
S11308B0010101010101000000000000000000002E
S11308C00101010101010101010101000000000019
S11308D00000000000000000000000000000000113
S11308E001010101010101010000000000000000FC
S11308F000000001010101010101010101000000EA
S113090000000000000000000000000000000000E3
S113091000000000010101010100000000000000CE
S113092000000000000001010101010101010100BA
S113093000000000000000000000000000000000B3
S113094000000000000000000000000000000000A3
S11309500000000000000000000000000000000093
S11309600000000000000000000000000000000083
S1130970000000000000000000000000000011243E
S11309801FBECFE5D2E0DEBFCDBFBFD1CAC138CBD9
S11309908FB980E48EB98BE18DB9769BFDCF8FB191
S11309A0089587B3866087BBB898C09A0895C498A1
S11309B0C398EEDFC39A0895C49AC398E9DFC39A33
S11309C00895CF93C82FC49AC398892FE1DF8C2F41
S11309D0DFDFC39ACF9108950F931F93CF93DF93D3
S11309E08C01EB018AE2E3DFC801EBDFCE01DF918A
S11309F0CF911F910F91E5CF0F931F93CF93DF9367
S1130A008C01EB018BE2D3DFC801DBDFCE01DF9188
S1130A10CF911F910F91D5CF0F931F93CF93DF9356
S1130A20EB018A01BC01D8DFBE01CE01E5DF8CE217
S1130A30BEDFC801DF91CF911F910F91C2CF2F92DA
S1130A403F924F925F926F927F928F929F92AF925A
S1130A50BF92CF92DF92EF92FF920F931F93CF93A7
S1130A60DF9300D000D000D0CDB7DEB79C838B835A
S1130A70000F111F1901E89437F8812C912C1016DE
S1130A8011060CF049C0C401880F991F9C01220D66
S1130A90331D3A8329833E822D82280134E6430E96
S1130AA0511C380185E6680E711C2D813E81121699
S1130AB013067CF5E981FA812D813E81E21BF30B5B
S1130AC08B819C81E80FF91FE491E130C9F4A60100
S1130AD0B201590194E6A90EB11CC5019DDFA6011E
S1130AE0B201ED80FE8025E6E20EF11CC70194DF21
S1130AF0A601B301C50190DFA601B301C7018CDFD4
S1130B003FEF831A930A8D819E8102979E838D8382
S1130B10CCCF02501109B3CF26960FB6F894DEBF9E
S1130B200FBECDBFDF91CF911F910F91FF90EF903A
S1130B30DF90CF90BF90AF909F908F907F906F90F9
S1130B405F904F903F902F900895C39AC49A81E08C
S1130B502EDF83EC99E00197F1F700C000008BECE5
S1130B6026DF89E329DF8CE227DF80E025DF84E3C9
S1130B7023DF82E021DF8FEC1ADF80E01DDF81ECD0
S1130B801BDF80E319DF88EE12DF85E815DF80E0E4
S1130B9013DF88E711DF8AEE0ADF80E00DDF80E0F3
S1130BA00BDF8DEE04DF84E607DF83E005DF82E1FF
S1130BB003DF81E801DF87EFFADE80E2FDDE80EC0F
S1130BC0F6DE83E2F9DE81ECF2DE80E1F5DE85EC2F
S1130BD0EEDE8EE3F1DE88E2EFDE87ECE8DE86E827
S1130BE0EBDE86E3E4DE88E4E7DE8AE3E0DE85E547
S1130BF0E3DE81EBDCDE80E0DFDE88E1DDDE86EB58
S1130C00D6DE88E0D9DE82E8D7DE87E2D5DE82EF61
S1130C10CEDE80E0D1DE86E2CADE81E0CDDE80EE8B
S1130C20C6DE8FE0C9DE81E3C7DE8BE2C5DE8CE081
S1130C30C3DE8EE0C1DE88E0BFDE8EE4BDDE81EF80
S1130C40BBDE87E3B9DE87E0B7DE80E1B5DE83E0B3
S1130C50B3DE8EE0B1DE89E0AFDE80E0ADDE81EEB2
S1130C60A6DE80E0A9DE8EE0A7DE84E1A5DE83E0D7
S1130C70A3DE81E1A1DE87E09FDE81E39DDE81ECDE
S1130C809BDE88E499DE88E097DE8FE095DE8CE0D9
S1130C9093DE81E391DE86E38FDE8FE08DDE81E1FA
S1130CA086DE8FE295E70197F1F700C0000089E244
S1130CB07EDE8CE27CCE1ABC13BE18BA87B3886180
S1130CC087BBBD9885B78F7B85BFC59A0895CF92A2
S1130CD0DF92EF92FF920F931F93C12C88EFD82ECF
S1130CE094E0E92EF12C02E310E022E330E042E349
S1130CF050E062E370E08EE190E0A1DE1F910F917D
S1130D00FF90EF90DF90CF900895D5DF4ADE1DDF8E
S1130D1040E058EF60E070E080E090E07DDED7DFF7
S1090D20FFCFF894FFCFA1
S9030000FC
